{
  "contractName": "CrowdFunding",
  "abi": [
    {
      "inputs": [
        {
          "internalType": "uint256",
          "name": "_target",
          "type": "uint256"
        },
        {
          "internalType": "uint256",
          "name": "_deadline",
          "type": "uint256"
        }
      ],
      "stateMutability": "nonpayable",
      "type": "constructor"
    },
    {
      "inputs": [
        {
          "internalType": "address",
          "name": "",
          "type": "address"
        }
      ],
      "name": "contributors",
      "outputs": [
        {
          "internalType": "uint256",
          "name": "",
          "type": "uint256"
        }
      ],
      "stateMutability": "view",
      "type": "function"
    },
    {
      "inputs": [],
      "name": "deadline",
      "outputs": [
        {
          "internalType": "uint256",
          "name": "",
          "type": "uint256"
        }
      ],
      "stateMutability": "view",
      "type": "function"
    },
    {
      "inputs": [],
      "name": "manager",
      "outputs": [
        {
          "internalType": "address",
          "name": "",
          "type": "address"
        }
      ],
      "stateMutability": "view",
      "type": "function"
    },
    {
      "inputs": [],
      "name": "minimumContribution",
      "outputs": [
        {
          "internalType": "uint256",
          "name": "",
          "type": "uint256"
        }
      ],
      "stateMutability": "view",
      "type": "function"
    },
    {
      "inputs": [],
      "name": "noOfContributors",
      "outputs": [
        {
          "internalType": "uint256",
          "name": "",
          "type": "uint256"
        }
      ],
      "stateMutability": "view",
      "type": "function"
    },
    {
      "inputs": [],
      "name": "numRequests",
      "outputs": [
        {
          "internalType": "uint256",
          "name": "",
          "type": "uint256"
        }
      ],
      "stateMutability": "view",
      "type": "function"
    },
    {
      "inputs": [],
      "name": "raisedAmount",
      "outputs": [
        {
          "internalType": "uint256",
          "name": "",
          "type": "uint256"
        }
      ],
      "stateMutability": "view",
      "type": "function"
    },
    {
      "inputs": [
        {
          "internalType": "uint256",
          "name": "",
          "type": "uint256"
        }
      ],
      "name": "request",
      "outputs": [
        {
          "internalType": "string",
          "name": "description",
          "type": "string"
        },
        {
          "internalType": "address payable",
          "name": "recipient",
          "type": "address"
        },
        {
          "internalType": "uint256",
          "name": "value",
          "type": "uint256"
        },
        {
          "internalType": "bool",
          "name": "votingResult",
          "type": "bool"
        },
        {
          "internalType": "uint256",
          "name": "noOfVoters",
          "type": "uint256"
        }
      ],
      "stateMutability": "view",
      "type": "function"
    },
    {
      "inputs": [],
      "name": "target",
      "outputs": [
        {
          "internalType": "uint256",
          "name": "",
          "type": "uint256"
        }
      ],
      "stateMutability": "view",
      "type": "function"
    },
    {
      "inputs": [],
      "name": "sendEth",
      "outputs": [],
      "stateMutability": "payable",
      "type": "function"
    },
    {
      "inputs": [],
      "name": "getContractBalance",
      "outputs": [
        {
          "internalType": "uint256",
          "name": "",
          "type": "uint256"
        }
      ],
      "stateMutability": "view",
      "type": "function"
    },
    {
      "inputs": [],
      "name": "refund",
      "outputs": [],
      "stateMutability": "nonpayable",
      "type": "function"
    },
    {
      "inputs": [
        {
          "internalType": "string",
          "name": "_description",
          "type": "string"
        },
        {
          "internalType": "address payable",
          "name": "_recipient",
          "type": "address"
        },
        {
          "internalType": "uint256",
          "name": "_value",
          "type": "uint256"
        }
      ],
      "name": "createRequest",
      "outputs": [],
      "stateMutability": "nonpayable",
      "type": "function"
    },
    {
      "inputs": [
        {
          "internalType": "uint256",
          "name": "_requestNo",
          "type": "uint256"
        }
      ],
      "name": "voteRequest",
      "outputs": [],
      "stateMutability": "nonpayable",
      "type": "function"
    },
    {
      "inputs": [
        {
          "internalType": "uint256",
          "name": "_requestNo",
          "type": "uint256"
        }
      ],
      "name": "makePayment",
      "outputs": [],
      "stateMutability": "nonpayable",
      "type": "function"
    }
  ],
  "bytecode": "0x60806040523480156200001157600080fd5b5060405162001a1b38038062001a1b8339818101604052810190620000379190620000e3565b8160048190555080426200004c919062000159565b600381905550606460028190555033600160006101000a81548173ffffffffffffffffffffffffffffffffffffffff021916908373ffffffffffffffffffffffffffffffffffffffff160217905550505062000194565b600080fd5b6000819050919050565b620000bd81620000a8565b8114620000c957600080fd5b50565b600081519050620000dd81620000b2565b92915050565b60008060408385031215620000fd57620000fc620000a3565b5b60006200010d85828601620000cc565b92505060206200012085828601620000cc565b9150509250929050565b7f4e487b7100000000000000000000000000000000000000000000000000000000600052601160045260246000fd5b60006200016682620000a8565b91506200017383620000a8565b92508282019050808211156200018e576200018d6200012a565b5b92915050565b61187780620001a46000396000f3fe6080604052600436106100e85760003560e01c80635114cb521161008a5780639fb42b1f116100595780639fb42b1f1461029d578063c59ee1dc146102c8578063d4b83992146102f3578063d845a4b31461031e576100e8565b80635114cb5214610207578063590e1ae3146102305780636f9fb98a14610247578063937e09b114610272576100e8565b806329dcb0cf116100c657806329dcb0cf1461015d578063481c6a75146101885780634cb6f4a5146101b35780634e260f6f146101dc576100e8565b806306e99fef146100ed5780631b16bb5c146100f75780631f6d494214610120575b600080fd5b6100f561035f565b005b34801561010357600080fd5b5061011e60048036038101906101199190610e4e565b6104b7565b005b34801561012c57600080fd5b5061014760048036038101906101429190610efb565b610603565b6040516101549190610f37565b60405180910390f35b34801561016957600080fd5b5061017261061b565b60405161017f9190610f37565b60405180910390f35b34801561019457600080fd5b5061019d610621565b6040516101aa9190610f61565b60405180910390f35b3480156101bf57600080fd5b506101da60048036038101906101d59190610f7c565b610647565b005b3480156101e857600080fd5b506101f16107ec565b6040516101fe9190610f37565b60405180910390f35b34801561021357600080fd5b5061022e60048036038101906102299190610f7c565b6107f2565b005b34801561023c57600080fd5b506102456109e6565b005b34801561025357600080fd5b5061025c610b55565b6040516102699190610f37565b60405180910390f35b34801561027e57600080fd5b50610287610b5d565b6040516102949190610f37565b60405180910390f35b3480156102a957600080fd5b506102b2610b63565b6040516102bf9190610f37565b60405180910390f35b3480156102d457600080fd5b506102dd610b69565b6040516102ea9190610f37565b60405180910390f35b3480156102ff57600080fd5b50610308610b6f565b6040516103159190610f37565b60405180910390f35b34801561032a57600080fd5b5061034560048036038101906103409190610f7c565b610b75565b604051610356959493929190611052565b60405180910390f35b60035442106103a3576040517f08c379a000000000000000000000000000000000000000000000000000000000815260040161039a906110f8565b60405180910390fd5b3460025411156103e8576040517f08c379a00000000000000000000000000000000000000000000000000000000081526004016103df90611164565b60405180910390fd5b60008060003373ffffffffffffffffffffffffffffffffffffffff1673ffffffffffffffffffffffffffffffffffffffff16815260200190815260200160002054036104475760066000815480929190610441906111b3565b91905055505b346000803373ffffffffffffffffffffffffffffffffffffffff1673ffffffffffffffffffffffffffffffffffffffff168152602001908152602001600020600082825461049591906111fb565b9250508190555034600560008282546104ae91906111fb565b92505081905550565b600160009054906101000a900473ffffffffffffffffffffffffffffffffffffffff1673ffffffffffffffffffffffffffffffffffffffff163373ffffffffffffffffffffffffffffffffffffffff1614610547576040517f08c379a000000000000000000000000000000000000000000000000000000000815260040161053e906112a1565b60405180910390fd5b6000600760006008548152602001908152602001600020905060086000815480929190610573906111b3565b91905055508381600001908161058991906114cd565b50828160010160006101000a81548173ffffffffffffffffffffffffffffffffffffffff021916908373ffffffffffffffffffffffffffffffffffffffff16021790555081816002018190555060008160030160006101000a81548160ff0219169083151502179055506000816004018190555050505050565b60006020528060005260406000206000915090505481565b60035481565b600160009054906101000a900473ffffffffffffffffffffffffffffffffffffffff1681565b60008060003373ffffffffffffffffffffffffffffffffffffffff1673ffffffffffffffffffffffffffffffffffffffff16815260200190815260200160002054116106c8576040517f08c379a00000000000000000000000000000000000000000000000000000000081526004016106bf906115eb565b60405180910390fd5b6000600760008381526020019081526020016000209050600015158160050160003373ffffffffffffffffffffffffffffffffffffffff1673ffffffffffffffffffffffffffffffffffffffff16815260200190815260200160002060009054906101000a900460ff16151514610774576040517f08c379a000000000000000000000000000000000000000000000000000000000815260040161076b90611657565b60405180910390fd5b60018160050160003373ffffffffffffffffffffffffffffffffffffffff1673ffffffffffffffffffffffffffffffffffffffff16815260200190815260200160002060006101000a81548160ff0219169083151502179055508060040160008154809291906107e3906111b3565b91905055505050565b60065481565b600160009054906101000a900473ffffffffffffffffffffffffffffffffffffffff1673ffffffffffffffffffffffffffffffffffffffff163373ffffffffffffffffffffffffffffffffffffffff1614610882576040517f08c379a0000000000000000000000000000000000000000000000000000000008152600401610879906112a1565b60405180910390fd5b600454600554101561089357600080fd5b6000600760008381526020019081526020016000209050600015158160030160009054906101000a900460ff16151514610902576040517f08c379a00000000000000000000000000000000000000000000000000000000081526004016108f9906116c3565b60405180910390fd5b60026006546109119190611712565b816004015411610956576040517f08c379a000000000000000000000000000000000000000000000000000000000815260040161094d906117b5565b60405180910390fd5b8060010160009054906101000a900473ffffffffffffffffffffffffffffffffffffffff1673ffffffffffffffffffffffffffffffffffffffff166108fc82600201549081150290604051600060405180830381858888f193505050501580156109c4573d6000803e3d6000fd5b5060018160030160006101000a81548160ff0219169083151502179055505050565b600354421180156109fa5750600454600554105b610a39576040517f08c379a0000000000000000000000000000000000000000000000000000000008152600401610a3090611821565b60405180910390fd5b60008060003373ffffffffffffffffffffffffffffffffffffffff1673ffffffffffffffffffffffffffffffffffffffff1681526020019081526020016000205411610a8457600080fd5b60003390508073ffffffffffffffffffffffffffffffffffffffff166108fc6000803373ffffffffffffffffffffffffffffffffffffffff1673ffffffffffffffffffffffffffffffffffffffff168152602001908152602001600020549081150290604051600060405180830381858888f19350505050158015610b0d573d6000803e3d6000fd5b5060008060003373ffffffffffffffffffffffffffffffffffffffff1673ffffffffffffffffffffffffffffffffffffffff1681526020019081526020016000208190555050565b600047905090565b60025481565b60085481565b60055481565b60045481565b6007602052806000526040600020600091509050806000018054610b98906112f0565b80601f0160208091040260200160405190810160405280929190818152602001828054610bc4906112f0565b8015610c115780601f10610be657610100808354040283529160200191610c11565b820191906000526020600020905b815481529060010190602001808311610bf457829003601f168201915b5050505050908060010160009054906101000a900473ffffffffffffffffffffffffffffffffffffffff16908060020154908060030160009054906101000a900460ff16908060040154905085565b6000604051905090565b600080fd5b600080fd5b600080fd5b600080fd5b6000601f19601f8301169050919050565b7f4e487b7100000000000000000000000000000000000000000000000000000000600052604160045260246000fd5b610cc782610c7e565b810181811067ffffffffffffffff82111715610ce657610ce5610c8f565b5b80604052505050565b6000610cf9610c60565b9050610d058282610cbe565b919050565b600067ffffffffffffffff821115610d2557610d24610c8f565b5b610d2e82610c7e565b9050602081019050919050565b82818337600083830152505050565b6000610d5d610d5884610d0a565b610cef565b905082815260208101848484011115610d7957610d78610c79565b5b610d84848285610d3b565b509392505050565b600082601f830112610da157610da0610c74565b5b8135610db1848260208601610d4a565b91505092915050565b600073ffffffffffffffffffffffffffffffffffffffff82169050919050565b6000610de582610dba565b9050919050565b610df581610dda565b8114610e0057600080fd5b50565b600081359050610e1281610dec565b92915050565b6000819050919050565b610e2b81610e18565b8114610e3657600080fd5b50565b600081359050610e4881610e22565b92915050565b600080600060608486031215610e6757610e66610c6a565b5b600084013567ffffffffffffffff811115610e8557610e84610c6f565b5b610e9186828701610d8c565b9350506020610ea286828701610e03565b9250506040610eb386828701610e39565b9150509250925092565b6000610ec882610dba565b9050919050565b610ed881610ebd565b8114610ee357600080fd5b50565b600081359050610ef581610ecf565b92915050565b600060208284031215610f1157610f10610c6a565b5b6000610f1f84828501610ee6565b91505092915050565b610f3181610e18565b82525050565b6000602082019050610f4c6000830184610f28565b92915050565b610f5b81610ebd565b82525050565b6000602082019050610f766000830184610f52565b92915050565b600060208284031215610f9257610f91610c6a565b5b6000610fa084828501610e39565b91505092915050565b600081519050919050565b600082825260208201905092915050565b60005b83811015610fe3578082015181840152602081019050610fc8565b60008484015250505050565b6000610ffa82610fa9565b6110048185610fb4565b9350611014818560208601610fc5565b61101d81610c7e565b840191505092915050565b61103181610dda565b82525050565b60008115159050919050565b61104c81611037565b82525050565b600060a082019050818103600083015261106c8188610fef565b905061107b6020830187611028565b6110886040830186610f28565b6110956060830185611043565b6110a26080830184610f28565b9695505050505050565b7f446561646c696e65206861732070617373656400000000000000000000000000600082015250565b60006110e2601383610fb4565b91506110ed826110ac565b602082019050919050565b60006020820190508181036000830152611111816110d5565b9050919050565b7f4d696e696d756d20636f6e747269627574696f6e206973206e6f74206d657400600082015250565b600061114e601f83610fb4565b915061115982611118565b602082019050919050565b6000602082019050818103600083015261117d81611141565b9050919050565b7f4e487b7100000000000000000000000000000000000000000000000000000000600052601160045260246000fd5b60006111be82610e18565b91507fffffffffffffffffffffffffffffffffffffffffffffffffffffffffffffffff82036111f0576111ef611184565b5b600182019050919050565b600061120682610e18565b915061121183610e18565b925082820190508082111561122957611228611184565b5b92915050565b7f4f6e6c79206d616e616765722063616e2063616c6c20746869732066756e637460008201527f696f6e0000000000000000000000000000000000000000000000000000000000602082015250565b600061128b602383610fb4565b91506112968261122f565b604082019050919050565b600060208201905081810360008301526112ba8161127e565b9050919050565b7f4e487b7100000000000000000000000000000000000000000000000000000000600052602260045260246000fd5b6000600282049050600182168061130857607f821691505b60208210810361131b5761131a6112c1565b5b50919050565b60008190508160005260206000209050919050565b60006020601f8301049050919050565b600082821b905092915050565b6000600883026113837fffffffffffffffffffffffffffffffffffffffffffffffffffffffffffffffff82611346565b61138d8683611346565b95508019841693508086168417925050509392505050565b6000819050919050565b60006113ca6113c56113c084610e18565b6113a5565b610e18565b9050919050565b6000819050919050565b6113e4836113af565b6113f86113f0826113d1565b848454611353565b825550505050565b600090565b61140d611400565b6114188184846113db565b505050565b5b8181101561143c57611431600082611405565b60018101905061141e565b5050565b601f8211156114815761145281611321565b61145b84611336565b8101602085101561146a578190505b61147e61147685611336565b83018261141d565b50505b505050565b600082821c905092915050565b60006114a460001984600802611486565b1980831691505092915050565b60006114bd8383611493565b9150826002028217905092915050565b6114d682610fa9565b67ffffffffffffffff8111156114ef576114ee610c8f565b5b6114f982546112f0565b611504828285611440565b600060209050601f8311600181146115375760008415611525578287015190505b61152f85826114b1565b865550611597565b601f19841661154586611321565b60005b8281101561156d57848901518255600182019150602085019450602081019050611548565b8683101561158a5784890151611586601f891682611493565b8355505b6001600288020188555050505b505050505050565b7f596f752073686f756c64206265206120636f6e7472696275746f720000000000600082015250565b60006115d5601b83610fb4565b91506115e08261159f565b602082019050919050565b60006020820190508181036000830152611604816115c8565b9050919050565b7f596f75206861766520616c726561647920766f74656400000000000000000000600082015250565b6000611641601683610fb4565b915061164c8261160b565b602082019050919050565b6000602082019050818103600083015261167081611634565b9050919050565b7f54686520726571756573742068617320626565696e20636f6d706c6574656400600082015250565b60006116ad601f83610fb4565b91506116b882611677565b602082019050919050565b600060208201905081810360008301526116dc816116a0565b9050919050565b7f4e487b7100000000000000000000000000000000000000000000000000000000600052601260045260246000fd5b600061171d82610e18565b915061172883610e18565b925082611738576117376116e3565b5b828204905092915050565b7f4d616a6f72697479206973206e6f7420746865726520666f72207472616e736160008201527f6374696f6e000000000000000000000000000000000000000000000000000000602082015250565b600061179f602583610fb4565b91506117aa82611743565b604082019050919050565b600060208201905081810360008301526117ce81611792565b9050919050565b7f596f7520617265206e6f7420656c696769626c6520666f7220726566756e6400600082015250565b600061180b601f83610fb4565b9150611816826117d5565b602082019050919050565b6000602082019050818103600083015261183a816117fe565b905091905056fea2646970667358221220d69fc9f8e518e1472aa47ac4a19f19cb3ca5af25103122146fec6c9bc361487764736f6c63430008110033",
  "immutableReferences": {},
  "source": "// SPDX-License-Identifier: GPL-3.0\r\n\r\n/* Agenda: \r\n        A manager is asking for funds to different companies for crowdfunding from which his company will donate or invest \r\n        that money for different purpose. So, the companies who are going to give the amount that is in wei and that is \r\n        first send to a smart contract and if manager wants to transfer wei from the contract then he needs to ask \r\n        permission from majority of investors. In the Deadline of 10 days, if we didn't reached the target of wei then\r\n        after 10 days, investors can be able to remove their own wei.\r\n*/\r\n\r\n\r\npragma solidity >= 0.5.0 < 0.9.0;\r\n\r\n\r\ncontract CrowdFunding\r\n{\r\n    mapping (address => uint) public contributors;\r\n    address public manager;\r\n    uint public minimumContribution;\r\n    uint public deadline;\r\n    uint public target;\r\n    uint public raisedAmount;\r\n    uint public noOfContributors;\r\n\r\n    constructor (uint _target, uint _deadline)\r\n    {\r\n        target = _target;\r\n        deadline = block.timestamp + _deadline;     // 10 sec + 3600 sec means (1 hr)\r\n        minimumContribution = 100 wei;\r\n        manager = msg.sender;\r\n    }\r\n\r\n    function sendEth() public payable\r\n    {\r\n        require(block.timestamp < deadline, \"Deadline has passed\");\r\n        require(minimumContribution <= msg.value, \"Minimum contribution is not met\");\r\n\r\n        if(contributors[msg.sender] == 0)\r\n        {\r\n            noOfContributors++;\r\n        }\r\n\r\n        contributors[msg.sender] += msg.value;\r\n        raisedAmount += msg.value;\r\n        \r\n    }\r\n\r\n    function getContractBalance() public view returns(uint)\r\n    {\r\n        return address(this).balance;\r\n    }\r\n\r\n    function refund() public\r\n    {\r\n        require(block.timestamp > deadline && raisedAmount < target, \"You are not eligible for refund\");\r\n        require(contributors[msg.sender] > 0);\r\n\r\n        address payable user = payable(msg.sender);\r\n        user.transfer(contributors[msg.sender]);\r\n        contributors[msg.sender] = 0;\r\n    }\r\n\r\n    struct Request\r\n    {\r\n        string description;\r\n        address payable recipient;\r\n        uint value;\r\n        bool votingResult;      \r\n        uint noOfVoters;\r\n        mapping(address => bool) voters;\r\n    }\r\n\r\n    mapping(uint => Request) public request;\r\n    uint public numRequests;\r\n\r\n    modifier onlyManager()\r\n    {\r\n        require(msg.sender == manager, \"Only manager can call this function\");\r\n        _;\r\n    }\r\n\r\n    function createRequest(string memory _description, address payable _recipient, uint _value) public onlyManager\r\n    {\r\n        Request storage newRequest = request[numRequests];\r\n        numRequests++;\r\n        newRequest.description = _description;\r\n        newRequest.recipient = _recipient;\r\n        newRequest.value = _value;\r\n\r\n        newRequest.votingResult = false;\r\n        newRequest.noOfVoters = 0;\r\n    }\r\n\r\n    function voteRequest(uint _requestNo) public\r\n    {\r\n        require(contributors[msg.sender] > 0, \"You should be a contributor\");\r\n        Request storage thisRequest = request[_requestNo];\r\n\r\n        require(thisRequest.voters[msg.sender] == false, \"You have already voted\");\r\n        thisRequest.voters[msg.sender] = true;\r\n        thisRequest.noOfVoters++;\r\n    }\r\n\r\n\r\n    function makePayment(uint _requestNo) public onlyManager\r\n    {\r\n        require(raisedAmount >= target);\r\n        Request storage thisRequest = request[_requestNo];\r\n        require(thisRequest.votingResult == false, \"The request has beein completed\");\r\n        require(thisRequest.noOfVoters > noOfContributors/2, \"Majority is not there for transaction\");\r\n        thisRequest.recipient.transfer(thisRequest.value);\r\n        thisRequest.votingResult = true;\r\n    }\r\n\r\n\r\n}\r\n\r\n",
  "sourcePath": "C:\\Users\\HP\\OneDrive\\Desktop\\Solidity\\CrowdFunding_Project\\contracts\\project.sol",
  "compiler": {
    "name": "solc",
    "version": "0.8.17+commit.8df45f5f.Emscripten.clang"
  },
  "schemaVersion": "3.4.11",
  "updatedAt": "2022-12-04T22:37:08.964Z",
  "devdoc": {
    "kind": "dev",
    "methods": {},
    "version": 1
  },
  "userdoc": {
    "kind": "user",
    "methods": {},
    "version": 1
  }
}